{
  "_format": "hh-sol-artifact-1",
  "contractName": "WavePortal",
  "sourceName": "contracts/WavePortal.sol",
  "abi": [
    {
      "inputs": [],
      "stateMutability": "payable",
      "type": "constructor"
    },
    {
      "anonymous": false,
      "inputs": [
        {
          "indexed": true,
          "internalType": "address",
          "name": "from",
          "type": "address"
        },
        {
          "indexed": false,
          "internalType": "uint256",
          "name": "timestamp",
          "type": "uint256"
        },
        {
          "indexed": false,
          "internalType": "string",
          "name": "message",
          "type": "string"
        }
      ],
      "name": "NewWave",
      "type": "event"
    },
    {
      "inputs": [],
      "name": "getAllWaves",
      "outputs": [
        {
          "components": [
            {
              "internalType": "address",
              "name": "waver",
              "type": "address"
            },
            {
              "internalType": "string",
              "name": "message",
              "type": "string"
            },
            {
              "internalType": "uint256",
              "name": "timestamp",
              "type": "uint256"
            }
          ],
          "internalType": "struct WavePortal.Wave[]",
          "name": "",
          "type": "tuple[]"
        }
      ],
      "stateMutability": "view",
      "type": "function"
    },
    {
      "inputs": [],
      "name": "getLastWaver",
      "outputs": [
        {
          "internalType": "address",
          "name": "",
          "type": "address"
        }
      ],
      "stateMutability": "view",
      "type": "function"
    },
    {
      "inputs": [],
      "name": "getTotalWaves",
      "outputs": [
        {
          "internalType": "uint256",
          "name": "",
          "type": "uint256"
        }
      ],
      "stateMutability": "view",
      "type": "function"
    },
    {
      "inputs": [
        {
          "internalType": "address",
          "name": "",
          "type": "address"
        }
      ],
      "name": "lastWavedAt",
      "outputs": [
        {
          "internalType": "uint256",
          "name": "",
          "type": "uint256"
        }
      ],
      "stateMutability": "view",
      "type": "function"
    },
    {
      "inputs": [
        {
          "internalType": "string",
          "name": "_message",
          "type": "string"
        }
      ],
      "name": "wave",
      "outputs": [],
      "stateMutability": "nonpayable",
      "type": "function"
    }
  ],
  "bytecode": "0x60806040526200003360405180606001604052806027815260200162001486602791396200003960201b620007801760201c565b620001cd565b620000d98160405160240162000050919062000146565b6040516020818303038152906040527f41304fac000000000000000000000000000000000000000000000000000000007bffffffffffffffffffffffffffffffffffffffffffffffffffffffff19166020820180517bffffffffffffffffffffffffffffffffffffffffffffffffffffffff8381831617835250505050620000dc60201b60201c565b50565b60008151905060006a636f6e736f6c652e6c6f679050602083016000808483855afa5050505050565b600062000112826200016a565b6200011e818562000175565b93506200013081856020860162000186565b6200013b81620001bc565b840191505092915050565b6000602082019050818103600083015262000162818462000105565b905092915050565b600081519050919050565b600082825260208201905092915050565b60005b83811015620001a657808201518184015260208101905062000189565b83811115620001b6576000848401525b50505050565b6000601f19601f8301169050919050565b6112a980620001dd6000396000f3fe608060405234801561001057600080fd5b50600436106100575760003560e01c80632bce00e21461005c578063449d46c01461007a5780639a2cdc0814610096578063a42a4663146100b4578063bd43a908146100e4575b600080fd5b610064610102565b6040516100719190610d2c565b60405180910390f35b610094600480360381019061008f9190610ac3565b61018d565b005b61009e6105cc565b6040516100ab9190610e4b565b60405180910390f35b6100ce60048036038101906100c99190610a9a565b610617565b6040516100db9190610e4b565b60405180910390f35b6100ec61062f565b6040516100f99190610d47565b60405180910390f35b60006101656040518060400160405280601c81526020017f546865206c61737420706572736f6e2077686f20776176656420697300000000815250600260009054906101000a900473ffffffffffffffffffffffffffffffffffffffff16610819565b600260009054906101000a900473ffffffffffffffffffffffffffffffffffffffff16905090565b42610384600460003373ffffffffffffffffffffffffffffffffffffffff1673ffffffffffffffffffffffffffffffffffffffff168152602001908152602001600020546101db9190610f5d565b1061021b576040517f08c379a000000000000000000000000000000000000000000000000000000000815260040161021290610e2b565b60405180910390fd5b600160008082825461022d9190610f5d565b9250508190555033600260006101000a81548173ffffffffffffffffffffffffffffffffffffffff021916908373ffffffffffffffffffffffffffffffffffffffff1602179055506102b46040518060400160405280600d81526020017f257320686173207761766564210000000000000000000000000000000000000081525033610819565b3373ffffffffffffffffffffffffffffffffffffffff167f5f7e16dc676677766a70e9c5628aa6c54ddb8b6e5188e2ae1e1f17f1ffbea71642836040516102fc929190610e66565b60405180910390a2600160405180606001604052803373ffffffffffffffffffffffffffffffffffffffff16815260200183815260200142815250908060018154018082558091505060019003906000526020600020906003020160009091909190915060008201518160000160006101000a81548173ffffffffffffffffffffffffffffffffffffffff021916908373ffffffffffffffffffffffffffffffffffffffff16021790555060208201518160010190805190602001906103c392919061097a565b5060408201518160020155505042600460003373ffffffffffffffffffffffffffffffffffffffff1673ffffffffffffffffffffffffffffffffffffffff168152602001908152602001600020819055506000606460035442446104279190610f5d565b6104319190610f5d565b61043b9190611094565b905061047c6040518060400160405280601681526020017f52616e646f6d20232067656e6572617465643a20257300000000000000000000815250826108b5565b8060038190555060328110156105c8576104cb6040518060400160405280600781526020017f257320776f6e210000000000000000000000000000000000000000000000000081525033610819565b60006509184e72a000905047811115610519576040517f08c379a000000000000000000000000000000000000000000000000000000000815260040161051090610deb565b60405180910390fd5b60003373ffffffffffffffffffffffffffffffffffffffff168260405161053f90610d17565b60006040518083038185875af1925050503d806000811461057c576040519150601f19603f3d011682016040523d82523d6000602084013e610581565b606091505b50509050806105c5576040517f08c379a00000000000000000000000000000000000000000000000000000000081526004016105bc90610e0b565b60405180910390fd5b50505b5050565b600061060f6040518060400160405280600e81526020017f546f74616c20576176653a2025640000000000000000000000000000000000008152506000546108b5565b600054905090565b60046020528060005260406000206000915090505481565b60606001805480602002602001604051908101604052809291908181526020016000905b8282101561077757838290600052602060002090600302016040518060600160405290816000820160009054906101000a900473ffffffffffffffffffffffffffffffffffffffff1673ffffffffffffffffffffffffffffffffffffffff1673ffffffffffffffffffffffffffffffffffffffff1681526020016001820180546106dc90611031565b80601f016020809104026020016040519081016040528092919081815260200182805461070890611031565b80156107555780601f1061072a57610100808354040283529160200191610755565b820191906000526020600020905b81548152906001019060200180831161073857829003601f168201915b5050505050815260200160028201548152505081526020019060010190610653565b50505050905090565b610816816040516024016107949190610d69565b6040516020818303038152906040527f41304fac000000000000000000000000000000000000000000000000000000007bffffffffffffffffffffffffffffffffffffffffffffffffffffffff19166020820180517bffffffffffffffffffffffffffffffffffffffffffffffffffffffff8381831617835250505050610951565b50565b6108b1828260405160240161082f929190610d8b565b6040516020818303038152906040527f319af333000000000000000000000000000000000000000000000000000000007bffffffffffffffffffffffffffffffffffffffffffffffffffffffff19166020820180517bffffffffffffffffffffffffffffffffffffffffffffffffffffffff8381831617835250505050610951565b5050565b61094d82826040516024016108cb929190610dbb565b6040516020818303038152906040527f9710a9d0000000000000000000000000000000000000000000000000000000007bffffffffffffffffffffffffffffffffffffffffffffffffffffffff19166020820180517bffffffffffffffffffffffffffffffffffffffffffffffffffffffff8381831617835250505050610951565b5050565b60008151905060006a636f6e736f6c652e6c6f679050602083016000808483855afa5050505050565b82805461098690611031565b90600052602060002090601f0160209004810192826109a857600085556109ef565b82601f106109c157805160ff19168380011785556109ef565b828001600101855582156109ef579182015b828111156109ee5782518255916020019190600101906109d3565b5b5090506109fc9190610a00565b5090565b5b80821115610a19576000816000905550600101610a01565b5090565b6000610a30610a2b84610ebb565b610e96565b905082815260208101848484011115610a4857600080fd5b610a53848285610fef565b509392505050565b600081359050610a6a8161125c565b92915050565b600082601f830112610a8157600080fd5b8135610a91848260208601610a1d565b91505092915050565b600060208284031215610aac57600080fd5b6000610aba84828501610a5b565b91505092915050565b600060208284031215610ad557600080fd5b600082013567ffffffffffffffff811115610aef57600080fd5b610afb84828501610a70565b91505092915050565b6000610b108383610ca9565b905092915050565b610b2181610fb3565b82525050565b610b3081610fb3565b82525050565b6000610b4182610efc565b610b4b8185610f1f565b935083602082028501610b5d85610eec565b8060005b85811015610b995784840389528151610b7a8582610b04565b9450610b8583610f12565b925060208a01995050600181019050610b61565b50829750879550505050505092915050565b6000610bb682610f07565b610bc08185610f3b565b9350610bd0818560208601610ffe565b610bd981611181565b840191505092915050565b6000610bef82610f07565b610bf98185610f4c565b9350610c09818560208601610ffe565b610c1281611181565b840191505092915050565b6000610c2a603483610f4c565b9150610c3582611192565b604082019050919050565b6000610c4d602783610f4c565b9150610c58826111e1565b604082019050919050565b6000610c70600083610f30565b9150610c7b82611230565b600082019050919050565b6000610c93600883610f4c565b9150610c9e82611233565b602082019050919050565b6000606083016000830151610cc16000860182610b18565b5060208301518482036020860152610cd98282610bab565b9150506040830151610cee6040860182610cf9565b508091505092915050565b610d0281610fe5565b82525050565b610d1181610fe5565b82525050565b6000610d2282610c63565b9150819050919050565b6000602082019050610d416000830184610b27565b92915050565b60006020820190508181036000830152610d618184610b36565b905092915050565b60006020820190508181036000830152610d838184610be4565b905092915050565b60006040820190508181036000830152610da58185610be4565b9050610db46020830184610b27565b9392505050565b60006040820190508181036000830152610dd58185610be4565b9050610de46020830184610d08565b9392505050565b60006020820190508181036000830152610e0481610c1d565b9050919050565b60006020820190508181036000830152610e2481610c40565b9050919050565b60006020820190508181036000830152610e4481610c86565b9050919050565b6000602082019050610e606000830184610d08565b92915050565b6000604082019050610e7b6000830185610d08565b8181036020830152610e8d8184610be4565b90509392505050565b6000610ea0610eb1565b9050610eac8282611063565b919050565b6000604051905090565b600067ffffffffffffffff821115610ed657610ed5611152565b5b610edf82611181565b9050602081019050919050565b6000819050602082019050919050565b600081519050919050565b600081519050919050565b6000602082019050919050565b600082825260208201905092915050565b600081905092915050565b600082825260208201905092915050565b600082825260208201905092915050565b6000610f6882610fe5565b9150610f7383610fe5565b9250827fffffffffffffffffffffffffffffffffffffffffffffffffffffffffffffffff03821115610fa857610fa76110c5565b5b828201905092915050565b6000610fbe82610fc5565b9050919050565b600073ffffffffffffffffffffffffffffffffffffffff82169050919050565b6000819050919050565b82818337600083830152505050565b60005b8381101561101c578082015181840152602081019050611001565b8381111561102b576000848401525b50505050565b6000600282049050600182168061104957607f821691505b6020821081141561105d5761105c611123565b5b50919050565b61106c82611181565b810181811067ffffffffffffffff8211171561108b5761108a611152565b5b80604052505050565b600061109f82610fe5565b91506110aa83610fe5565b9250826110ba576110b96110f4565b5b828206905092915050565b7f4e487b7100000000000000000000000000000000000000000000000000000000600052601160045260246000fd5b7f4e487b7100000000000000000000000000000000000000000000000000000000600052601260045260246000fd5b7f4e487b7100000000000000000000000000000000000000000000000000000000600052602260045260246000fd5b7f4e487b7100000000000000000000000000000000000000000000000000000000600052604160045260246000fd5b6000601f19601f8301169050919050565b7f547279696e6720746f207769746864726177206d6f7265206d6f6e657920746860008201527f616e2074686520636f6e7472616374206861732e000000000000000000000000602082015250565b7f4661696c656420746f207769746864726177206d6f6e65792066726f6d20636f60008201527f6e74726163742e00000000000000000000000000000000000000000000000000602082015250565b50565b7f576169742031356d000000000000000000000000000000000000000000000000600082015250565b61126581610fb3565b811461127057600080fd5b5056fea26469706673582212202a42095b519dcbc427ba71e17cd48f09588b9f07124ebfefd4ff2f78e69e892264736f6c634300080400334c6f6f6b212054686973206973206d7920666972737420736d61727420636f6e74726163742021",
  "linkReferences": {},
  "deployedLinkReferences": {}
}